:020000040000FA
:06000000ADEF09F0120053
:0600080004EF08F01200F5
:060018000CEF08F01200DD
:06100000ADEF09F0120043
:02102A000000C4
:04102C00D9CFE6FF33
:10103000E1CFD9FF1D0EE126070EDF6EDE520B0E4B
:10104000DD6E0D0EF36E020EF3CFDBFF0E0EF36EB0
:10105000030EF3CFDBFF040EDB6A050EDB6A040E22
:10106000F36E060EF3CFDBFF070EDB6A060EF36EA0
:10107000090EF3CFDBFF050EF36E0A0EF3CFDBFF95
:10108000030EF36E0B0EF3CFDBFF030EF36E0C0EAD
:10109000F3CFDBFF0D0EDB6A310EF36E100EF3CFD4
:1010A000DBFF320EF36E110EF3CFDBFF330EF36E68
:1010B000120EF3CFDBFF340EF36E130EF3CFDBFF14
:1010C000350EF36E140EF3CFDBFF360EF36E150EF6
:1010D000F3CFDBFF370EF36E160EF3CFDBFF380EC8
:1010E000F36E170EF3CFDBFF390EF36E180EF3CF4E
:1010F000DBFF2A0EF36E190EF3CFDBFF300EF36E1B
:101100001A0EF3CFDBFF230EF36E1B0EF3CFDBFFC4
:101110001C0EDB6A040EDB6A050EDB6A040EDBCFF5
:1011200014F0050EDBCF15F0060EDBCF16F0070E20
:10113000DBCF17F015501718E8AE02D0173404D0E3
:101140001650145C1750155874E2D9CF14F0DACF4A
:1011500015F0040EDB501424E96E050EDB5015204B
:10116000EA6EEF50836E83380F0BE76E080EE7CF01
:10117000DBFF0E0EDB6A0F0EDB6A0E0EDBCF14F008
:101180000F0EDBCF15F00C0EDBCF16F00D0EDBCF04
:1011900017F015501718E8AE02D0173404D01650C7
:1011A000145C175015583BE2D950090F146EDACF72
:1011B00015F00E0EDB501424E96E0F0EDB501520D7
:1011C000EA6EEF50F36E080EDB50F35C22E1D9506B
:1011D000100F166EDACF17F0030E086E096A040EB0
:1011E000DBCF0DF0050EDBCF0EF080EC09F01650D2
:1011F0000624146E17500720156E0E0EDB501424B3
:10120000E96E0F0EDB501520EA6E1C0EEFCFDBFFF0
:1012100006D00E0EDB2A0F0E01E3DB2AAED71C0E22
:10122000DB5001E006D0040EDB2A050E01E3DB2AC9
:1012300075D71C0EDB50146E1D0EE15C03E200D06E
:10124000E16AE552E16E1450E552E7CFD9FF120092
:10125000660ED36E936AF00E956EE8DE816EFDD752
:0212600012007A
:0E1262002A0EF66E100EF76E000EF86E0001EA
:101270000900F550656F0900F550666F03E1656779
:1012800001D03DD00900F550606F0900F550616F45
:101290000900F550626F09000900F550E96E090078
:1012A000F550EA6E090009000900F550636F090066
:1012B000F550646F09000900F6CF67F0F7CF68F0CA
:1012C000F8CF69F060C0F6FF61C0F7FF62C0F8FFB9
:1012D0000001635302E1645307E00900F550EE6E2C
:1012E0006307F8E26407F9D767C0F6FF68C0F7FF45
:1012F00069C0F8FF00016507000E665BBFD71200EA
:1013000009C013F008C012F008500D02F4CF07F026
:10131000F3CF06F009500E02F4CF09F0F3CF08F036
:101320000D02F3500726F4500822E86A09221250F1
:101330000E02F3500726F4500822E86A09220EAE86
:10134000A6EF09F01250085E1350095A13AE000CB4
:0A1350000D50085E0E50095A000C03
:06135A0013EE00F023EE8B
:1013600000F0F86A019C31EC09F0C2EC09F028ECBD
:0613700009F0FBD712009A
:0A13760000EE00F00F0EEE6AEA62CE
:04138000FDD7120083
:02138400120055
:00000001FF
