:020000040000FA
:06000000C4EF09F012003C
:0600080004EF08F01200F5
:060018000CEF08F01200DD
:06100000C4EF09F012002C
:02102A000000C4
:04102C00D9CFE6FF33
:10103000E1CFD9FF220EE126070EDF6EDE520B0E46
:10104000DD6E0D0EF36E020EF3CFDBFF0E0EF36EB0
:10105000030EF3CFDBFF040EDB6A050EDB6A040E22
:10106000F36E060EF3CFDBFF070EDB6A0E0EF36E98
:10107000090EF3CFDBFF0D0EF36E0A0EF3CFDBFF8D
:101080000B0EF36EF3CFDBFF070EF36E0C0EF3CFF8
:10109000DBFF040EF36E0D0EF3CFDBFF0E0EDB6AEB
:1010A000430EF36E110EF3CFDBFF300EF36E120E14
:1010B000F3CFDBFF3D0EF36E130EF3CFDBFF2B0EF2
:1010C000F36E140EF3CFDBFF310EF36E150EF3CF7C
:1010D000DBFF320EF36E160EF3CFDBFF330EF36E33
:1010E000170EF3CFDBFF2D0EF36E180EF3CFDBFFE1
:1010F000340EF36E190EF3CFDBFF350EF36E1A0EBE
:10110000F3CFDBFF360EF36E1B0EF3CFDBFF2A0EA1
:10111000F36E1C0EF3CFDBFF370EF36E1D0EF3CF15
:10112000DBFF380EF36E1E0EF3CFDBFF390EF36ECE
:101130001F0EF3CFDBFF2F0EF36E200EF3CFDBFF7E
:10114000210EDB6A040EDB6A050EDB6A040EDBCFC0
:1011500014F0050EDBCF15F0060EDBCF16F0070EF0
:10116000DBCF17F015501718E8AE02D0173404D0B3
:101170001650145C1750155873E2D9CF14F0DACF1B
:1011800015F0040EDB501424E96E050EDB5015201B
:10119000EA6EEF50836E83380F0BE76E080EE7CFD1
:1011A000DBFF0F0EDB6A100EDB6A0F0EDBCF14F0D5
:1011B000100EDBCF15F00D0EDBCF16F00E0EDBCFD1
:1011C00017F015501718E8AE02D0173404D0165097
:1011D000145C175015583AE2D950090F146EDACF43
:1011E00015F00F0EDB501424E96E100EDB501520A5
:1011F000EA6EEF50F36E080EDB50F35C21E1D9503C
:10120000110F166EDACF17F0040E086E096ADBCFE5
:101210000DF0050EDBCF0EF097EC09F0165006240A
:10122000146E17500720156E0F0EDB501424E96E54
:10123000100EDB501520EA6E210EEFCFDBFF06D03B
:101240000F0EDB2A100E01E3DB2AAFD7210EDB5095
:1012500001E006D0040EDB2A050E01E3DB2A76D777
:10126000210EDB50146E220EE15C03E200D0E16A35
:10127000E552E16E1450E552E7CFD9FF1200660E39
:10128000D36E936AF00E956ED1DE816EFDD712009B
:101290002A0EF66E100EF76E000EF86E00010900B1
:1012A000F550656F0900F550666F03E1656701D081
:1012B0003DD00900F550606F0900F550616F0900DD
:1012C000F550626F09000900F550E96E0900F5500C
:1012D000EA6E090009000900F550636F0900F55036
:1012E000646F09000900F6CF67F0F7CF68F0F8CF18
:1012F00069F060C0F6FF61C0F7FF62C0F8FF00014F
:10130000635302E1645307E00900F550EE6E630792
:10131000F8E26407F9D767C0F6FF68C0F7FF69C055
:0E132000F8FF00016507000E665BBFD71200E4
:02132E0009C0F4
:1013300013F008C012F008500D02F4CF07F0F3CFFD
:1013400006F009500E02F4CF09F0F3CF08F00D02B9
:10135000F3500726F4500822E86A092212500E02C0
:10136000F3500726F4500822E86A09220EAEBDEFBA
:1013700009F01250085E1350095A13AE000C0D50BC
:08138000085E0E50095A000C32
:0813880013EE00F023EE00F06B
:10139000F86A019C48EC09F0D9EC09F03FEC09F03F
:0413A000FBD7120065
:0C13A40000EE00F00F0EEE6AEA62FDD7CA
:0213B000120029
:0213B200120027
:00000001FF
