:020000040000FA
:060000008BEF04F012007A
:020006000000F8
:0600080007EF00F01200FA
:02000E00DACF47
:10001000E4FFE2CFDAFFE9CFE4FFEACFE4FFF6CF77
:10002000E4FFF7CFE4FFF5CFE4FFF3CFE4FFF4CF35
:10003000E4FFFACFE4FF00EE00F0140EE80403E35F
:10004000EECFE4FFFBD700EE14F0080EE80403E364
:10005000EECFE4FFFBD7E652F0A002D0C7D8F09075
:10006000F2A202D0B5D8F292F2A406D0C0D83C0ECB
:10007000D76E950ED66EF294E55200EE1BF0080E88
:10008000E80403E3E5CFEDFFFBD700EE13F0140E19
:10009000E80403E3E5CFEDFFFBD7E5CFFAFFE5CFBB
:1000A000F4FFE5CFF3FFE5CFF5FFE5CFF7FFE5CFB1
:1000B000F6FFE5CFEAFFE5CFE9FFE5CFDAFF110074
:1000C000F288F28E1200F086F28E1200F184F28A2B
:1000D0003C0ED76E950ED66E800ED56EF28E120047
:1000E000660ED36EC50EE66E02EC04F0E552936820
:1000F000946A826A956A836A60EF00F0D9CFE6FF5E
:10010000E1CFD9FFFD0EDBCF14F0FE0EDBCF15F0F3
:10011000153404E214506308000E155425E2640EF1
:10012000146E156AFD0EDBCF08F0FE0EDBCF09F072
:1001300014C00DF015C00EF078EC02F00850E8B0D5
:100140008280E8A08290FD0EDBCF14F0FE0EDBCFA4
:1001500015F0640E145E000E155AFD0E14C0DBFF80
:10016000FE0E15C0DBFF01D08290FD0EDBCF14F038
:10017000FE0EDBCF15F00A0E0D6E0E6A14C008F0ED
:1001800015C009F078EC02F008C014F009C015F0B1
:10019000040ED89014361536E804FBE1FD0EDBCFD3
:1001A00016F0FE0EDBCF17F00A0E0D6E0E6A16C0AB
:1001B00008F017C009F078EC02F004C016F005C092
:1001C00017F014501624836EE552E7CFD9FF1200C2
:1001D00023EC04F0F3CF8AF0F4CF8BF0000EE66E40
:1001E000E66A42EC04F0E552E552120012001200F9
:1001F000D9CFE6FFE1CFD9FF0C0EE126040EDB6A72
:10020000050EDB6A060EDB6A070EDB6A600EF36E14
:10021000080EF3CFDBFFE30EF36E090EF3CFDBFF27
:10022000160EF36E0A0EF3CFDBFF0B0EDB6A58DF00
:100230008AC014F08BC015F0166A176A15AE02D08A
:100240001668176814C00BF015C00CF016C00DF03E
:1002500017C00EF0080EDBCF06F0090EDBCF07F05B
:100260000A0EDBCF08F00B0EDBCF09F09EEC02F09C
:1002700006C0DEFF07C0DEFF08C0DEFF09C0DDFFED
:10028000DD52DD52D9CFE9FFDACFEAFFD890030E75
:10029000EB50000A08E6820EEE5C000EEE58000EEF
:1002A000EE58000EEE5802E3828E01D0829ED9CF26
:1002B000E9FFDACFEAFFEECF14F0EECF15F0EECF84
:1002C00016F0EFCF17F0D950040FE96EDACFEAFF3E
:1002D000030EEBCFF3FF1750F318E8AE02D0F33460
:1002E00008D0EE50145CEE501558EE501658EE50F3
:1002F000175803E2828C829A26D0D9CFE9FFDACF51
:10030000EAFFEECF14F0EECF15F0EECF16F0EFCF00
:1003100017F0D950040FE96EDACFEAFF030EEB5065
:100320001718E8AE02D0173408D01450EE5C155000
:10033000EE581650EE581750EE5803E2828A829C0F
:1003400002D0829C829AD9CFE9FFDACFEAFF040E6D
:10035000EECFDBFF050EEECFDBFF060EEECFDBFFB1
:10036000070EEECFDBFF81B23CD0D9CFE9FFDACF69
:10037000EAFFEECF18F0EECF19F0EECF1AF0EFCF84
:100380001BF018C006F019C007F01AC008F01BC017
:1003900009F00CEC02F007C014F008C015F009C019
:1003A00016F00AC017F0B60E0C6EF30E0D6ECD0EE1
:1003B0000E6E3F0E0F6E14C007F015C008F016C089
:1003C00009F017C00AF025EC02F0D2EC02F006C0EA
:1003D000DEFF07C0DEFF08C0DEFF09C0DDFFDD5223
:1003E000DD52000EDFCFE6FF010EDBCFE6FF86DE3B
:1003F000E552E5521DD7010EE66E5EEC04F0E552C3
:100400000C0EE15C02E2E16AE552E16EE552E7CFF3
:04041000D9FF1200FE
:0C041400019E0CD0019E09AE09D0066CC0
:10042000071E081E091EE86A072208220922018EFB
:1004300009C003F008C002F007C013F006C012F0B4
:100440009E0E046E056A25EF03F0016A61EC03F06D
:1004500079EC03F001B609EF03F001A205D001BA6F
:1004600009EF03F010EF03F001BA1CEF03F001A055
:1004700005D001B809EF03F01CEF03F001B810EF4D
:1004800003F0056A7F0E0A24046EE86A05220F5005
:10049000045EE86A055A1A0E106E0A6A126A136A36
:1004A000026A036A0C50075E0D50085A0E50095A32
:1004B000000E0A5A09E70C5007260D5008220E506C
:1004C0000922000E0A2201D0128AD8900736083677
:1004D00009360A36D8901236133602360336102EF5
:1004E000E1D7095008100710D8A4128A25EF03F0AD
:1004F000006A0EAE81EF02F00D6C0E1EE86A0E224D
:10050000001E09AE89EF02F0086C091EE86A092294
:10051000001E75EC04F009BE99EF02F000AE000C6D
:10052000086C091EE86A0922046C051EE86A0522A7
:10053000000C00BE90EF02F00188FF0C006AE86A30
:100540000EAEABEF02F00B6C0C1E0D1E0E1E0C223D
:100550000D220E22001E09AEB6EF02F0066C071E39
:10056000081E091E072208220922001EDEEC03F0E5
:1005700009BECDEF02F000AE000C066C071E081E8F
:10058000091EE86A072208220922026C031E041EC3
:10059000051E032204220522000C00BEBDEF02F05E
:1005A0000188FF0C016A61EC03F001B6DCEF02F098
:1005B00001A20FD001B407D07F0E096EFF0E086EA6
:1005C000076E066E25D0800E096E01D0096A000EF6
:1005D000F6D701B0FBD7066A9F0E0A60EBD77E0EF6
:1005E0000A64F4D79E0E0A5C07E0D89009320832FC
:1005F000073206320A2AF6D701A40AD0066C071E73
:10060000081E091EE86A07220822092209AEDED761
:1006100012007F0E0A6EFF0E096E086E076E120042
:100620007F0E01BEFF0E0A6E02D07F0E0A6E800E94
:10063000096E086A076AF3D701AE04D0800E0A6E0D
:10064000096AF7D70A6A096AF4D70350021013102F
:100650001210F8E005BEF0D703BE0CD00450051010
:10066000EBE0D89012361336023603360406D8A0D3
:100670000506F2D70550D4E10428D2E012AE11D01D
:100680007F0E121402E113A00CD0132AE86A022292
:10069000032207E3D880033202321332042A0428EB
:1006A000BFE00450C9E013C007F002C008F00334F3
:1006B000096E04300A6E09320A9E01BE0A8E0FEFDF
:1006C00003F009360A3602E30184017E06E1018067
:1006D0000A6A096A086A076A12000A2803E0D880D1
:1006E00009321200D890093202E10182120001861B
:1006F00012000E360F3602E3018C017E06E10188FE
:100700000F6A0E6A0D6A0C6A12000F2803E0D88087
:0E0710000E321200D8900E32EAE1018A120079
:02071E00060EC5
:10072000F66E000EF76E000EF86E00010900F5502F
:10073000856F0900F550866F03E1856701D03DD0D4
:100740000900F550806F0900F550816F0900F550E0
:10075000826F09000900F550E96E0900F550EA6E54
:10076000090009000900F550836F0900F550846FF6
:1007700009000900F6CF87F0F7CF88F0F8CF89F0AD
:1007800080C0F6FF81C0F7FF82C0F8FF00018353ED
:1007900002E1845307E00900F550EE6E8307F8E2AA
:1007A0008407F9D787C0F6FF88C0F7FF89C0F8FF34
:0C07B00000018507000E865BBFD7120019
:0407BC00056A046A5C
:1007C000036A026A200EE76ED890063607360836AE
:1007D000093602360336043605360B50025C0C50DF
:1007E00003580D5004580E50055809E30B50025E93
:1007F0000C50035A0D50045A0E50055A062AE72E83
:04080000E4D7120027
:0C080400D9CFE6FFDACFE6FFE1CFD9FF45
:10081000E2CFDAFFFD0EDB507E0BCD6EFD0EDBACC2
:1008200002D0CD8E01D0CD9ECF6ACE6A9E90DBAE37
:1008300002D09D8001D09D90CD80E552E5CFDAFFBA
:06084000E7CFD9FF120012
:0A084600D9CFE6FFDACFE6FFE1CFDD
:10085000D9FFE2CFDAFFE652E652CE50DF6E010E4C
:10086000CFCFDBFFDECF14F0DDCF15F014C0F3FFE8
:1008700015C0F4FFE552E552E552E5CFDAFFE7CFC8
:04088000D9FF12008A
:0C088400D9CFE6FFDACFE6FFE1CFD9FFC5
:10089000E2CFDAFFE652E652FC0EDBCFDEFFDBCF23
:1008A000DDFF010EDB50CF6EDF50CE6EE552E5521C
:0C08B000E552E5CFDAFFE7CFD9FF1200D8
:0408BC00FF0EE350F8
:1008C0001D6EEF0E01D0F30EE76EE72E65EF04F01C
:1008D0000C0E1C6EE76AE72E6BEF04F01C2E6AEF1D
:0A08E00004F01D2E63EF04F0120077
:0608EA00056A046A100E0D
:1008F000E76ED89008360936043605360D50045C8C
:100900000E50055805E30D50045E0E50055A082A96
:06091000E72EF0D71200F3
:0A09160015EE00F025EE00F0F86A7F
:10092000019C8FEC03F0A0EC04F0F8EC00F0FBD796
:020930001200B3
:0E09320000EE00F00F0EEE6AEA62FDD7120032
:020940001200A3
:00000001FF
