:020000040000FA
:0600000082EF01F0120086
:020006000000F8
:08000800D9CFE6FFE1CFD9FFDB
:10001000E652050E106E116AFD0EDBCF08F0FE0EE3
:10002000DBCF09F010C00DF011C00EF046EC01F06E
:100030000850DF6EDF5000D0E552E552E7CFD9FF20
:100040001200D9CFE6FFE1CFD9FFFE0EDB50F36EF1
:10005000FD0EDBCFF4FFF350F45C02E2829201D09C
:100060008282E552E7CFD9FF1200D9CFE6FFE1CF78
:10007000D9FFFD0EDBCF10F0FE0EDB50D880105400
:1000800002E2829401D08284E552E7CFD9FF1200C8
:10009000D9CFE6FFE1CFD9FF0A0E126E12C00EF0E3
:1000A000FE0EDBCF09F090EC01F005C011F00A0E56
:1000B000106E10C00EF0FE0EDBCF09F090EC01F0D8
:1000C0000938F00B1124836EE552E7CFD9FF1200F7
:1000D000D9CFE6FFE1CFD9FF020EE126660ED36E3F
:1000E000956A946A0C0EE66E040EE66EAD0EE66E30
:1000F0000FEC01F0E552E552E552050EE66E9EEC7E
:1001000001F0E552BEEC01F0B9EC01F0000901E0AC
:10011000FBD7A9EC01F0F3CF10F0F4CF11F0D89099
:1001200011321032D890113210321050DF6EDFCF02
:10013000E6FFE66A69DFE552E552E76E010EE7CFBA
:10014000DBFFDBCFE6FFA4DFE552010EDBCFE6FFEE
:100150000F0EE66E76DFE552E552010EDBCFE6FFCD
:100160001C0EE66E82DFE552E552CCD7020EE15C52
:1001700002E2E16AE552E16EE552E7CFD9FF1200F3
:10018000060EF66E000EF76E000EF86E0001090006
:10019000F550656F0900F550666F03E1656701D0A2
:1001A0003DD00900F550606F0900F550616F0900FE
:1001B000F550626F09000900F550E96E0900F5502D
:1001C000EA6E090009000900F550636F0900F55057
:1001D000646F09000900F6CF67F0F7CF68F0F8CF39
:1001E00069F060C0F6FF61C0F7FF62C0F8FF000170
:1001F000635302E1645307E00900F550EE6E6307B4
:10020000F8E26407F9D767C0F6FF68C0F7FF69C076
:0E021000F8FF00016507000E665BBFD7120005
:02021E00D9CF36
:10022000E6FFDACFE6FFE1CFD9FFE2CFDAFFC26A1D
:10023000C06AFC0EDB407F0B3C0BC26EFB0EDBCFBB
:10024000E6FFFC0EDB38F00B300BE552E710C16E19
:10025000FD0EDB50040DF350380B116EFD0EDB3834
:100260000F0B070B106EFD0EDB50800B10101110E2
:10027000C06EFC0EDBAE03D09E9C9D8CF28CC280C7
:0C028000E552E5CFDAFFE7CFD9FF12000E
:04028C00006A0EAE48
:100290004FEF01F00D6C0E1EE86A0E22001E09AE33
:1002A00057EF01F0086C091EE86A0922001E6CEC89
:1002B00001F009BE67EF01F000AE000C086C091EEA
:1002C000E86A0922046C051EE86A0522000C00BEDB
:0802D0005EEF01F00188FF0C54
:0802D800056A046A100EE76ECE
:1002E000D89008360936043605360D50045C0E5099
:1002F000055805E30D50045E0E50055A082AE72EF6
:04030000F0D7120020
:0C03040013EE00F023EE00F0F86A019CFC
:10031000C0EC00F0C0EC01F068EC00F0FBD712007C
:10032000056A080EE76ED890093605360E50055C52
:0C03300002E3056E092AE72EF7D7120041
:04033C00FF0EE3507D
:10034000E84E1200000000D000D000D0E82EFAD70E
:02035000120099
:0E035200C450136E126AC3501210F36E13C023
:04036000F4FF120094
:0C03640000EE00F00F0EEE6AEA62FDD71A
:02037000120079
:0A037200C250020B01E0010E120060
:04037C00C282120027
:02038000120069
:00000001FF
